{
  "_format": "hh-sol-artifact-1",
  "contractName": "CarbonCredit",
  "sourceName": "contracts/CarbonCredit.sol",
  "abi": [
    {
      "inputs": [],
      "stateMutability": "nonpayable",
      "type": "constructor"
    },
    {
      "stateMutability": "payable",
      "type": "fallback"
    },
    {
      "inputs": [
        {
          "internalType": "uint256",
          "name": "amount",
          "type": "uint256"
        }
      ],
      "name": "BuyCredit",
      "outputs": [],
      "stateMutability": "nonpayable",
      "type": "function"
    },
    {
      "inputs": [
        {
          "internalType": "string",
          "name": "name",
          "type": "string"
        },
        {
          "internalType": "uint256",
          "name": "credit",
          "type": "uint256"
        }
      ],
      "name": "Company",
      "outputs": [
        {
          "components": [
            {
              "internalType": "string",
              "name": "name",
              "type": "string"
            },
            {
              "internalType": "uint256",
              "name": "currcredit",
              "type": "uint256"
            }
          ],
          "internalType": "struct CarbonCredit.company",
          "name": "",
          "type": "tuple"
        }
      ],
      "stateMutability": "nonpayable",
      "type": "function"
    },
    {
      "inputs": [
        {
          "internalType": "uint256",
          "name": "amount",
          "type": "uint256"
        },
        {
          "internalType": "address",
          "name": "source",
          "type": "address"
        }
      ],
      "name": "ExchangeCredit",
      "outputs": [],
      "stateMutability": "nonpayable",
      "type": "function"
    },
    {
      "inputs": [
        {
          "internalType": "uint256",
          "name": "amount",
          "type": "uint256"
        }
      ],
      "name": "SellCredit",
      "outputs": [],
      "stateMutability": "nonpayable",
      "type": "function"
    },
    {
      "inputs": [
        {
          "internalType": "address",
          "name": "",
          "type": "address"
        }
      ],
      "name": "companies",
      "outputs": [
        {
          "internalType": "string",
          "name": "name",
          "type": "string"
        },
        {
          "internalType": "uint256",
          "name": "currcredit",
          "type": "uint256"
        }
      ],
      "stateMutability": "view",
      "type": "function"
    },
    {
      "inputs": [
        {
          "internalType": "address",
          "name": "companyaddr",
          "type": "address"
        }
      ],
      "name": "showCredits",
      "outputs": [
        {
          "internalType": "uint256",
          "name": "",
          "type": "uint256"
        }
      ],
      "stateMutability": "view",
      "type": "function"
    },
    {
      "inputs": [],
      "name": "totalCredit",
      "outputs": [
        {
          "internalType": "uint256",
          "name": "",
          "type": "uint256"
        }
      ],
      "stateMutability": "view",
      "type": "function"
    }
  ],
  "bytecode": "0x6080604052348015600f57600080fd5b506064600081905550610ed3806100276000396000f3fe6080604052600436106100745760003560e01c80633bd713351161004e5780633bd713351461011b578063a43d640414610158578063ced852af14610183578063e0b27527146101ac57610075565b8063014d91fc146100775780631c9e59a0146100a0578063355e6ce8146100dd57610075565b5b005b34801561008357600080fd5b5061009e600480360381019061009991906106bb565b6101d5565b005b3480156100ac57600080fd5b506100c760048036038101906100c29190610746565b610249565b6040516100d49190610782565b60405180910390f35b3480156100e957600080fd5b5061010460048036038101906100ff9190610746565b610295565b60405161011292919061082d565b60405180910390f35b34801561012757600080fd5b50610142600480360381019061013d9190610992565b610341565b60405161014f9190610a84565b60405180910390f35b34801561016457600080fd5b5061016d6104ce565b60405161017a9190610782565b60405180910390f35b34801561018f57600080fd5b506101aa60048036038101906101a59190610aa6565b6104d4565b005b3480156101b857600080fd5b506101d360048036038101906101ce91906106bb565b61058a565b005b806000808282546101e69190610b15565b9250508190555080600160003373ffffffffffffffffffffffffffffffffffffffff1673ffffffffffffffffffffffffffffffffffffffff168152602001908152602001600020600101600082825461023f9190610b49565b9250508190555050565b6000600160008373ffffffffffffffffffffffffffffffffffffffff1673ffffffffffffffffffffffffffffffffffffffff168152602001908152602001600020600101549050919050565b60016020528060005260406000206000915090508060000180546102b890610bac565b80601f01602080910402602001604051908101604052809291908181526020018280546102e490610bac565b80156103315780601f1061030657610100808354040283529160200191610331565b820191906000526020600020905b81548152906001019060200180831161031457829003601f168201915b5050505050908060010154905082565b610349610657565b82600160003373ffffffffffffffffffffffffffffffffffffffff1673ffffffffffffffffffffffffffffffffffffffff16815260200190815260200160002060000190816103989190610d89565b5081600160003373ffffffffffffffffffffffffffffffffffffffff1673ffffffffffffffffffffffffffffffffffffffff16815260200190815260200160002060010181905550600160003373ffffffffffffffffffffffffffffffffffffffff1673ffffffffffffffffffffffffffffffffffffffff16815260200190815260200160002060405180604001604052908160008201805461043a90610bac565b80601f016020809104026020016040519081016040528092919081815260200182805461046690610bac565b80156104b35780601f10610488576101008083540402835291602001916104b3565b820191906000526020600020905b81548152906001019060200180831161049657829003601f168201915b50505050508152602001600182015481525050905092915050565b60005481565b81600160008373ffffffffffffffffffffffffffffffffffffffff1673ffffffffffffffffffffffffffffffffffffffff16815260200190815260200160002060010160008282546105269190610b15565b9250508190555081600160003373ffffffffffffffffffffffffffffffffffffffff1673ffffffffffffffffffffffffffffffffffffffff168152602001908152602001600020600101600082825461057f9190610b49565b925050819055505050565b8060008082825461059b9190610b49565b9250508190555080600160003373ffffffffffffffffffffffffffffffffffffffff1673ffffffffffffffffffffffffffffffffffffffff16815260200190815260200160002060010160008282546105f49190610b15565b9250508190555060003390508073ffffffffffffffffffffffffffffffffffffffff166108fc6002846106279190610e5b565b9081150290604051600060405180830381858888f19350505050158015610652573d6000803e3d6000fd5b505050565b604051806040016040528060608152602001600081525090565b6000604051905090565b600080fd5b600080fd5b6000819050919050565b61069881610685565b81146106a357600080fd5b50565b6000813590506106b58161068f565b92915050565b6000602082840312156106d1576106d061067b565b5b60006106df848285016106a6565b91505092915050565b600073ffffffffffffffffffffffffffffffffffffffff82169050919050565b6000610713826106e8565b9050919050565b61072381610708565b811461072e57600080fd5b50565b6000813590506107408161071a565b92915050565b60006020828403121561075c5761075b61067b565b5b600061076a84828501610731565b91505092915050565b61077c81610685565b82525050565b60006020820190506107976000830184610773565b92915050565b600081519050919050565b600082825260208201905092915050565b60005b838110156107d75780820151818401526020810190506107bc565b60008484015250505050565b6000601f19601f8301169050919050565b60006107ff8261079d565b61080981856107a8565b93506108198185602086016107b9565b610822816107e3565b840191505092915050565b6000604082019050818103600083015261084781856107f4565b90506108566020830184610773565b9392505050565b600080fd5b600080fd5b7f4e487b7100000000000000000000000000000000000000000000000000000000600052604160045260246000fd5b61089f826107e3565b810181811067ffffffffffffffff821117156108be576108bd610867565b5b80604052505050565b60006108d1610671565b90506108dd8282610896565b919050565b600067ffffffffffffffff8211156108fd576108fc610867565b5b610906826107e3565b9050602081019050919050565b82818337600083830152505050565b6000610935610930846108e2565b6108c7565b90508281526020810184848401111561095157610950610862565b5b61095c848285610913565b509392505050565b600082601f8301126109795761097861085d565b5b8135610989848260208601610922565b91505092915050565b600080604083850312156109a9576109a861067b565b5b600083013567ffffffffffffffff8111156109c7576109c6610680565b5b6109d385828601610964565b92505060206109e4858286016106a6565b9150509250929050565b600082825260208201905092915050565b6000610a0a8261079d565b610a1481856109ee565b9350610a248185602086016107b9565b610a2d816107e3565b840191505092915050565b610a4181610685565b82525050565b60006040830160008301518482036000860152610a6482826109ff565b9150506020830151610a796020860182610a38565b508091505092915050565b60006020820190508181036000830152610a9e8184610a47565b905092915050565b60008060408385031215610abd57610abc61067b565b5b6000610acb858286016106a6565b9250506020610adc85828601610731565b9150509250929050565b7f4e487b7100000000000000000000000000000000000000000000000000000000600052601160045260246000fd5b6000610b2082610685565b9150610b2b83610685565b9250828203905081811115610b4357610b42610ae6565b5b92915050565b6000610b5482610685565b9150610b5f83610685565b9250828201905080821115610b7757610b76610ae6565b5b92915050565b7f4e487b7100000000000000000000000000000000000000000000000000000000600052602260045260246000fd5b60006002820490506001821680610bc457607f821691505b602082108103610bd757610bd6610b7d565b5b50919050565b60008190508160005260206000209050919050565b60006020601f8301049050919050565b600082821b905092915050565b600060088302610c3f7fffffffffffffffffffffffffffffffffffffffffffffffffffffffffffffffff82610c02565b610c498683610c02565b95508019841693508086168417925050509392505050565b6000819050919050565b6000610c86610c81610c7c84610685565b610c61565b610685565b9050919050565b6000819050919050565b610ca083610c6b565b610cb4610cac82610c8d565b848454610c0f565b825550505050565b600090565b610cc9610cbc565b610cd4818484610c97565b505050565b5b81811015610cf857610ced600082610cc1565b600181019050610cda565b5050565b601f821115610d3d57610d0e81610bdd565b610d1784610bf2565b81016020851015610d26578190505b610d3a610d3285610bf2565b830182610cd9565b50505b505050565b600082821c905092915050565b6000610d6060001984600802610d42565b1980831691505092915050565b6000610d798383610d4f565b9150826002028217905092915050565b610d928261079d565b67ffffffffffffffff811115610dab57610daa610867565b5b610db58254610bac565b610dc0828285610cfc565b600060209050601f831160018114610df35760008415610de1578287015190505b610deb8582610d6d565b865550610e53565b601f198416610e0186610bdd565b60005b82811015610e2957848901518255600182019150602085019450602081019050610e04565b86831015610e465784890151610e42601f891682610d4f565b8355505b6001600288020188555050505b505050505050565b6000610e6682610685565b9150610e7183610685565b9250828202610e7f81610685565b91508282048414831517610e9657610e95610ae6565b5b509291505056fea2646970667358221220cd9d0fb8a46fa9a57c20b44fd5232c2dedf60bf1b76bd810dadaf71dd98fef1f64736f6c634300081b0033",
  "linkReferences": {},
  "deployedLinkReferences": {}
}